{
  "_format": "hh-sol-artifact-1",
  "contractName": "IDrisToken",
  "sourceName": "contracts/IDrisToken.sol",
  "abi": [
    {
      "inputs": [],
      "stateMutability": "nonpayable",
      "type": "constructor"
    },
    {
      "inputs": [
        {
          "internalType": "address",
          "name": "spender",
          "type": "address"
        },
        {
          "internalType": "uint256",
          "name": "allowance",
          "type": "uint256"
        },
        {
          "internalType": "uint256",
          "name": "needed",
          "type": "uint256"
        }
      ],
      "name": "ERC20InsufficientAllowance",
      "type": "error"
    },
    {
      "inputs": [
        {
          "internalType": "address",
          "name": "sender",
          "type": "address"
        },
        {
          "internalType": "uint256",
          "name": "balance",
          "type": "uint256"
        },
        {
          "internalType": "uint256",
          "name": "needed",
          "type": "uint256"
        }
      ],
      "name": "ERC20InsufficientBalance",
      "type": "error"
    },
    {
      "inputs": [
        {
          "internalType": "address",
          "name": "approver",
          "type": "address"
        }
      ],
      "name": "ERC20InvalidApprover",
      "type": "error"
    },
    {
      "inputs": [
        {
          "internalType": "address",
          "name": "receiver",
          "type": "address"
        }
      ],
      "name": "ERC20InvalidReceiver",
      "type": "error"
    },
    {
      "inputs": [
        {
          "internalType": "address",
          "name": "sender",
          "type": "address"
        }
      ],
      "name": "ERC20InvalidSender",
      "type": "error"
    },
    {
      "inputs": [
        {
          "internalType": "address",
          "name": "spender",
          "type": "address"
        }
      ],
      "name": "ERC20InvalidSpender",
      "type": "error"
    },
    {
      "anonymous": false,
      "inputs": [
        {
          "indexed": true,
          "internalType": "address",
          "name": "owner",
          "type": "address"
        },
        {
          "indexed": true,
          "internalType": "address",
          "name": "spender",
          "type": "address"
        },
        {
          "indexed": false,
          "internalType": "uint256",
          "name": "value",
          "type": "uint256"
        }
      ],
      "name": "Approval",
      "type": "event"
    },
    {
      "anonymous": false,
      "inputs": [
        {
          "indexed": true,
          "internalType": "address",
          "name": "from",
          "type": "address"
        },
        {
          "indexed": true,
          "internalType": "address",
          "name": "to",
          "type": "address"
        },
        {
          "indexed": false,
          "internalType": "uint256",
          "name": "value",
          "type": "uint256"
        }
      ],
      "name": "Transfer",
      "type": "event"
    },
    {
      "inputs": [
        {
          "internalType": "address",
          "name": "owner",
          "type": "address"
        },
        {
          "internalType": "address",
          "name": "spender",
          "type": "address"
        }
      ],
      "name": "allowance",
      "outputs": [
        {
          "internalType": "uint256",
          "name": "",
          "type": "uint256"
        }
      ],
      "stateMutability": "view",
      "type": "function"
    },
    {
      "inputs": [
        {
          "internalType": "address",
          "name": "spender",
          "type": "address"
        },
        {
          "internalType": "uint256",
          "name": "value",
          "type": "uint256"
        }
      ],
      "name": "approve",
      "outputs": [
        {
          "internalType": "bool",
          "name": "",
          "type": "bool"
        }
      ],
      "stateMutability": "nonpayable",
      "type": "function"
    },
    {
      "inputs": [
        {
          "internalType": "address",
          "name": "account",
          "type": "address"
        }
      ],
      "name": "balanceOf",
      "outputs": [
        {
          "internalType": "uint256",
          "name": "",
          "type": "uint256"
        }
      ],
      "stateMutability": "view",
      "type": "function"
    },
    {
      "inputs": [],
      "name": "decimals",
      "outputs": [
        {
          "internalType": "uint8",
          "name": "",
          "type": "uint8"
        }
      ],
      "stateMutability": "view",
      "type": "function"
    },
    {
      "inputs": [
        {
          "internalType": "uint256",
          "name": "_amount",
          "type": "uint256"
        }
      ],
      "name": "mint",
      "outputs": [],
      "stateMutability": "nonpayable",
      "type": "function"
    },
    {
      "inputs": [],
      "name": "name",
      "outputs": [
        {
          "internalType": "string",
          "name": "",
          "type": "string"
        }
      ],
      "stateMutability": "view",
      "type": "function"
    },
    {
      "inputs": [],
      "name": "owner",
      "outputs": [
        {
          "internalType": "address",
          "name": "",
          "type": "address"
        }
      ],
      "stateMutability": "view",
      "type": "function"
    },
    {
      "inputs": [],
      "name": "symbol",
      "outputs": [
        {
          "internalType": "string",
          "name": "",
          "type": "string"
        }
      ],
      "stateMutability": "view",
      "type": "function"
    },
    {
      "inputs": [],
      "name": "totalSupply",
      "outputs": [
        {
          "internalType": "uint256",
          "name": "",
          "type": "uint256"
        }
      ],
      "stateMutability": "view",
      "type": "function"
    },
    {
      "inputs": [
        {
          "internalType": "address",
          "name": "to",
          "type": "address"
        },
        {
          "internalType": "uint256",
          "name": "value",
          "type": "uint256"
        }
      ],
      "name": "transfer",
      "outputs": [
        {
          "internalType": "bool",
          "name": "",
          "type": "bool"
        }
      ],
      "stateMutability": "nonpayable",
      "type": "function"
    },
    {
      "inputs": [
        {
          "internalType": "address",
          "name": "from",
          "type": "address"
        },
        {
          "internalType": "address",
          "name": "to",
          "type": "address"
        },
        {
          "internalType": "uint256",
          "name": "value",
          "type": "uint256"
        }
      ],
      "name": "transferFrom",
      "outputs": [
        {
          "internalType": "bool",
          "name": "",
          "type": "bool"
        }
      ],
      "stateMutability": "nonpayable",
      "type": "function"
    }
  ],
  "bytecode": "0x60a060405234801561001057600080fd5b506040518060400160405280600b81526020017f694472697320546f6b656e0000000000000000000000000000000000000000008152506040518060400160405280600381526020017f44525a0000000000000000000000000000000000000000000000000000000000815250816003908161008c91906105ef565b50806004908161009c91906105ef565b5050503373ffffffffffffffffffffffffffffffffffffffff1660808173ffffffffffffffffffffffffffffffffffffffff16815250506100ed3369152d02c7e14af68000006100f260201b60201c565b6107e1565b600073ffffffffffffffffffffffffffffffffffffffff168273ffffffffffffffffffffffffffffffffffffffff16036101645760006040517fec442f0500000000000000000000000000000000000000000000000000000000815260040161015b9190610702565b60405180910390fd5b6101766000838361017a60201b60201c565b5050565b600073ffffffffffffffffffffffffffffffffffffffff168373ffffffffffffffffffffffffffffffffffffffff16036101cc5780600260008282546101c0919061074c565b9250508190555061029f565b60008060008573ffffffffffffffffffffffffffffffffffffffff1673ffffffffffffffffffffffffffffffffffffffff16815260200190815260200160002054905081811015610258578381836040517fe450d38c00000000000000000000000000000000000000000000000000000000815260040161024f9392919061078f565b60405180910390fd5b8181036000808673ffffffffffffffffffffffffffffffffffffffff1673ffffffffffffffffffffffffffffffffffffffff16815260200190815260200160002081905550505b600073ffffffffffffffffffffffffffffffffffffffff168273ffffffffffffffffffffffffffffffffffffffff16036102e85780600260008282540392505081905550610335565b806000808473ffffffffffffffffffffffffffffffffffffffff1673ffffffffffffffffffffffffffffffffffffffff168152602001908152602001600020600082825401925050819055505b8173ffffffffffffffffffffffffffffffffffffffff168373ffffffffffffffffffffffffffffffffffffffff167fddf252ad1be2c89b69c2b068fc378daa952ba7f163c4a11628f55a4df523b3ef8360405161039291906107c6565b60405180910390a3505050565b600081519050919050565b7f4e487b7100000000000000000000000000000000000000000000000000000000600052604160045260246000fd5b7f4e487b7100000000000000000000000000000000000000000000000000000000600052602260045260246000fd5b6000600282049050600182168061042057607f821691505b602082108103610433576104326103d9565b5b50919050565b60008190508160005260206000209050919050565b60006020601f8301049050919050565b600082821b905092915050565b60006008830261049b7fffffffffffffffffffffffffffffffffffffffffffffffffffffffffffffffff8261045e565b6104a5868361045e565b95508019841693508086168417925050509392505050565b6000819050919050565b6000819050919050565b60006104ec6104e76104e2846104bd565b6104c7565b6104bd565b9050919050565b6000819050919050565b610506836104d1565b61051a610512826104f3565b84845461046b565b825550505050565b600090565b61052f610522565b61053a8184846104fd565b505050565b5b8181101561055e57610553600082610527565b600181019050610540565b5050565b601f8211156105a35761057481610439565b61057d8461044e565b8101602085101561058c578190505b6105a06105988561044e565b83018261053f565b50505b505050565b600082821c905092915050565b60006105c6600019846008026105a8565b1980831691505092915050565b60006105df83836105b5565b9150826002028217905092915050565b6105f88261039f565b67ffffffffffffffff811115610611576106106103aa565b5b61061b8254610408565b610626828285610562565b600060209050601f8311600181146106595760008415610647578287015190505b61065185826105d3565b8655506106b9565b601f19841661066786610439565b60005b8281101561068f5784890151825560018201915060208501945060208101905061066a565b868310156106ac57848901516106a8601f8916826105b5565b8355505b6001600288020188555050505b505050505050565b600073ffffffffffffffffffffffffffffffffffffffff82169050919050565b60006106ec826106c1565b9050919050565b6106fc816106e1565b82525050565b600060208201905061071760008301846106f3565b92915050565b7f4e487b7100000000000000000000000000000000000000000000000000000000600052601160045260246000fd5b6000610757826104bd565b9150610762836104bd565b925082820190508082111561077a5761077961071d565b5b92915050565b610789816104bd565b82525050565b60006060820190506107a460008301866106f3565b6107b16020830185610780565b6107be6040830184610780565b949350505050565b60006020820190506107db6000830184610780565b92915050565b6080516110d461080360003960008181610391015261044701526110d46000f3fe608060405234801561001057600080fd5b50600436106100a95760003560e01c806370a082311161007157806370a08231146101685780638da5cb5b1461019857806395d89b41146101b6578063a0712d68146101d4578063a9059cbb146101f0578063dd62ed3e14610220576100a9565b806306fdde03146100ae578063095ea7b3146100cc57806318160ddd146100fc57806323b872dd1461011a578063313ce5671461014a575b600080fd5b6100b6610250565b6040516100c39190610c4d565b60405180910390f35b6100e660048036038101906100e19190610d08565b6102e2565b6040516100f39190610d63565b60405180910390f35b610104610305565b6040516101119190610d8d565b60405180910390f35b610134600480360381019061012f9190610da8565b61030f565b6040516101419190610d63565b60405180910390f35b61015261033e565b60405161015f9190610e17565b60405180910390f35b610182600480360381019061017d9190610e32565b610347565b60405161018f9190610d8d565b60405180910390f35b6101a061038f565b6040516101ad9190610e6e565b60405180910390f35b6101be6103b3565b6040516101cb9190610c4d565b60405180910390f35b6101ee60048036038101906101e99190610e89565b610445565b005b61020a60048036038101906102059190610d08565b6104f3565b6040516102179190610d63565b60405180910390f35b61023a60048036038101906102359190610eb6565b610516565b6040516102479190610d8d565b60405180910390f35b60606003805461025f90610f25565b80601f016020809104026020016040519081016040528092919081815260200182805461028b90610f25565b80156102d85780601f106102ad576101008083540402835291602001916102d8565b820191906000526020600020905b8154815290600101906020018083116102bb57829003601f168201915b5050505050905090565b6000806102ed61059d565b90506102fa8185856105a5565b600191505092915050565b6000600254905090565b60008061031a61059d565b90506103278582856105b7565b61033285858561064b565b60019150509392505050565b60006012905090565b60008060008373ffffffffffffffffffffffffffffffffffffffff1673ffffffffffffffffffffffffffffffffffffffff168152602001908152602001600020549050919050565b7f000000000000000000000000000000000000000000000000000000000000000081565b6060600480546103c290610f25565b80601f01602080910402602001604051908101604052809291908181526020018280546103ee90610f25565b801561043b5780601f106104105761010080835404028352916020019161043b565b820191906000526020600020905b81548152906001019060200180831161041e57829003601f168201915b5050505050905090565b7f000000000000000000000000000000000000000000000000000000000000000073ffffffffffffffffffffffffffffffffffffffff163373ffffffffffffffffffffffffffffffffffffffff16146104d3576040517f08c379a00000000000000000000000000000000000000000000000000000000081526004016104ca90610fa2565b60405180910390fd5b6104f033670de0b6b3a7640000836104eb9190610ff1565b61073f565b50565b6000806104fe61059d565b905061050b81858561064b565b600191505092915050565b6000600160008473ffffffffffffffffffffffffffffffffffffffff1673ffffffffffffffffffffffffffffffffffffffff16815260200190815260200160002060008373ffffffffffffffffffffffffffffffffffffffff1673ffffffffffffffffffffffffffffffffffffffff16815260200190815260200160002054905092915050565b600033905090565b6105b283838360016107c1565b505050565b60006105c38484610516565b90507fffffffffffffffffffffffffffffffffffffffffffffffffffffffffffffffff81146106455781811015610635578281836040517ffb8f41b200000000000000000000000000000000000000000000000000000000815260040161062c93929190611033565b60405180910390fd5b610644848484840360006107c1565b5b50505050565b600073ffffffffffffffffffffffffffffffffffffffff168373ffffffffffffffffffffffffffffffffffffffff16036106bd5760006040517f96c6fd1e0000000000000000000000000000000000000000000000000000000081526004016106b49190610e6e565b60405180910390fd5b600073ffffffffffffffffffffffffffffffffffffffff168273ffffffffffffffffffffffffffffffffffffffff160361072f5760006040517fec442f050000000000000000000000000000000000000000000000000000000081526004016107269190610e6e565b60405180910390fd5b61073a838383610998565b505050565b600073ffffffffffffffffffffffffffffffffffffffff168273ffffffffffffffffffffffffffffffffffffffff16036107b15760006040517fec442f050000000000000000000000000000000000000000000000000000000081526004016107a89190610e6e565b60405180910390fd5b6107bd60008383610998565b5050565b600073ffffffffffffffffffffffffffffffffffffffff168473ffffffffffffffffffffffffffffffffffffffff16036108335760006040517fe602df0500000000000000000000000000000000000000000000000000000000815260040161082a9190610e6e565b60405180910390fd5b600073ffffffffffffffffffffffffffffffffffffffff168373ffffffffffffffffffffffffffffffffffffffff16036108a55760006040517f94280d6200000000000000000000000000000000000000000000000000000000815260040161089c9190610e6e565b60405180910390fd5b81600160008673ffffffffffffffffffffffffffffffffffffffff1673ffffffffffffffffffffffffffffffffffffffff16815260200190815260200160002060008573ffffffffffffffffffffffffffffffffffffffff1673ffffffffffffffffffffffffffffffffffffffff168152602001908152602001600020819055508015610992578273ffffffffffffffffffffffffffffffffffffffff168473ffffffffffffffffffffffffffffffffffffffff167f8c5be1e5ebec7d5bd14f71427d1e84f3dd0314c0f7b2291e5b200ac8c7c3b925846040516109899190610d8d565b60405180910390a35b50505050565b600073ffffffffffffffffffffffffffffffffffffffff168373ffffffffffffffffffffffffffffffffffffffff16036109ea5780600260008282546109de919061106a565b92505081905550610abd565b60008060008573ffffffffffffffffffffffffffffffffffffffff1673ffffffffffffffffffffffffffffffffffffffff16815260200190815260200160002054905081811015610a76578381836040517fe450d38c000000000000000000000000000000000000000000000000000000008152600401610a6d93929190611033565b60405180910390fd5b8181036000808673ffffffffffffffffffffffffffffffffffffffff1673ffffffffffffffffffffffffffffffffffffffff16815260200190815260200160002081905550505b600073ffffffffffffffffffffffffffffffffffffffff168273ffffffffffffffffffffffffffffffffffffffff1603610b065780600260008282540392505081905550610b53565b806000808473ffffffffffffffffffffffffffffffffffffffff1673ffffffffffffffffffffffffffffffffffffffff168152602001908152602001600020600082825401925050819055505b8173ffffffffffffffffffffffffffffffffffffffff168373ffffffffffffffffffffffffffffffffffffffff167fddf252ad1be2c89b69c2b068fc378daa952ba7f163c4a11628f55a4df523b3ef83604051610bb09190610d8d565b60405180910390a3505050565b600081519050919050565b600082825260208201905092915050565b60005b83811015610bf7578082015181840152602081019050610bdc565b60008484015250505050565b6000601f19601f8301169050919050565b6000610c1f82610bbd565b610c298185610bc8565b9350610c39818560208601610bd9565b610c4281610c03565b840191505092915050565b60006020820190508181036000830152610c678184610c14565b905092915050565b600080fd5b600073ffffffffffffffffffffffffffffffffffffffff82169050919050565b6000610c9f82610c74565b9050919050565b610caf81610c94565b8114610cba57600080fd5b50565b600081359050610ccc81610ca6565b92915050565b6000819050919050565b610ce581610cd2565b8114610cf057600080fd5b50565b600081359050610d0281610cdc565b92915050565b60008060408385031215610d1f57610d1e610c6f565b5b6000610d2d85828601610cbd565b9250506020610d3e85828601610cf3565b9150509250929050565b60008115159050919050565b610d5d81610d48565b82525050565b6000602082019050610d786000830184610d54565b92915050565b610d8781610cd2565b82525050565b6000602082019050610da26000830184610d7e565b92915050565b600080600060608486031215610dc157610dc0610c6f565b5b6000610dcf86828701610cbd565b9350506020610de086828701610cbd565b9250506040610df186828701610cf3565b9150509250925092565b600060ff82169050919050565b610e1181610dfb565b82525050565b6000602082019050610e2c6000830184610e08565b92915050565b600060208284031215610e4857610e47610c6f565b5b6000610e5684828501610cbd565b91505092915050565b610e6881610c94565b82525050565b6000602082019050610e836000830184610e5f565b92915050565b600060208284031215610e9f57610e9e610c6f565b5b6000610ead84828501610cf3565b91505092915050565b60008060408385031215610ecd57610ecc610c6f565b5b6000610edb85828601610cbd565b9250506020610eec85828601610cbd565b9150509250929050565b7f4e487b7100000000000000000000000000000000000000000000000000000000600052602260045260246000fd5b60006002820490506001821680610f3d57607f821691505b602082108103610f5057610f4f610ef6565b5b50919050565b7f554e415554484f52495a45440000000000000000000000000000000000000000600082015250565b6000610f8c600c83610bc8565b9150610f9782610f56565b602082019050919050565b60006020820190508181036000830152610fbb81610f7f565b9050919050565b7f4e487b7100000000000000000000000000000000000000000000000000000000600052601160045260246000fd5b6000610ffc82610cd2565b915061100783610cd2565b925082820261101581610cd2565b9150828204841483151761102c5761102b610fc2565b5b5092915050565b60006060820190506110486000830186610e5f565b6110556020830185610d7e565b6110626040830184610d7e565b949350505050565b600061107582610cd2565b915061108083610cd2565b925082820190508082111561109857611097610fc2565b5b9291505056fea26469706673582212205af4d486c8e34fc83ad4484c16bae13ec23c08e804a1d1b48b8486d5004e902f64736f6c634300081a0033",
  "linkReferences": {},
  "deployedLinkReferences": {}
}