{
  "_format": "hh-sol-artifact-1",
  "contractName": "StakeIDrisToken",
  "sourceName": "contracts/StakeIDrisToken.sol",
  "abi": [
    {
      "inputs": [
        {
          "internalType": "address",
          "name": "_tokenAddress",
          "type": "address"
        }
      ],
      "stateMutability": "nonpayable",
      "type": "constructor"
    },
    {
      "inputs": [],
      "name": "AddressZeroDetected",
      "type": "error"
    },
    {
      "inputs": [],
      "name": "AssetIsLocked",
      "type": "error"
    },
    {
      "inputs": [],
      "name": "CanNotTransferToExistingStaker",
      "type": "error"
    },
    {
      "inputs": [],
      "name": "CantSendToZeroAddress",
      "type": "error"
    },
    {
      "inputs": [],
      "name": "InsufficientContractBalance",
      "type": "error"
    },
    {
      "inputs": [],
      "name": "InsufficientFunds",
      "type": "error"
    },
    {
      "inputs": [],
      "name": "NoRecordFound",
      "type": "error"
    },
    {
      "inputs": [],
      "name": "NotOwner",
      "type": "error"
    },
    {
      "inputs": [],
      "name": "ZeroValueNotAllowed",
      "type": "error"
    },
    {
      "anonymous": false,
      "inputs": [
        {
          "indexed": true,
          "internalType": "address",
          "name": "user",
          "type": "address"
        },
        {
          "indexed": false,
          "internalType": "uint256",
          "name": "amount",
          "type": "uint256"
        },
        {
          "indexed": false,
          "internalType": "uint8",
          "name": "months",
          "type": "uint8"
        }
      ],
      "name": "StakingSuccessful",
      "type": "event"
    },
    {
      "anonymous": false,
      "inputs": [
        {
          "indexed": true,
          "internalType": "address",
          "name": "from",
          "type": "address"
        },
        {
          "indexed": true,
          "internalType": "address",
          "name": "_to",
          "type": "address"
        },
        {
          "indexed": false,
          "internalType": "uint256",
          "name": "amount",
          "type": "uint256"
        }
      ],
      "name": "TransferSuccessful",
      "type": "event"
    },
    {
      "anonymous": false,
      "inputs": [
        {
          "indexed": true,
          "internalType": "address",
          "name": "user",
          "type": "address"
        },
        {
          "indexed": false,
          "internalType": "uint256",
          "name": "amount",
          "type": "uint256"
        }
      ],
      "name": "WithdrawalSuccessful",
      "type": "event"
    },
    {
      "inputs": [],
      "name": "getContractBalance",
      "outputs": [
        {
          "internalType": "uint256",
          "name": "",
          "type": "uint256"
        }
      ],
      "stateMutability": "view",
      "type": "function"
    },
    {
      "inputs": [],
      "name": "getStakeRecord",
      "outputs": [
        {
          "components": [
            {
              "components": [
                {
                  "internalType": "uint256",
                  "name": "amountStaked",
                  "type": "uint256"
                },
                {
                  "internalType": "uint256",
                  "name": "stakedDate",
                  "type": "uint256"
                },
                {
                  "internalType": "uint256",
                  "name": "withdrawableDate",
                  "type": "uint256"
                }
              ],
              "internalType": "struct StakeIDrisToken.Record",
              "name": "staker",
              "type": "tuple"
            },
            {
              "internalType": "uint256",
              "name": "interestAccrued",
              "type": "uint256"
            }
          ],
          "internalType": "struct StakeIDrisToken.StakerRecord",
          "name": "",
          "type": "tuple"
        }
      ],
      "stateMutability": "view",
      "type": "function"
    },
    {
      "inputs": [
        {
          "internalType": "uint256",
          "name": "_amount",
          "type": "uint256"
        }
      ],
      "name": "ownerWithdraw",
      "outputs": [],
      "stateMutability": "nonpayable",
      "type": "function"
    },
    {
      "inputs": [
        {
          "internalType": "uint256",
          "name": "_amount",
          "type": "uint256"
        },
        {
          "internalType": "uint8",
          "name": "_months",
          "type": "uint8"
        }
      ],
      "name": "stake",
      "outputs": [],
      "stateMutability": "nonpayable",
      "type": "function"
    },
    {
      "inputs": [
        {
          "internalType": "address",
          "name": "_to",
          "type": "address"
        },
        {
          "internalType": "uint256",
          "name": "_amount",
          "type": "uint256"
        },
        {
          "internalType": "uint8",
          "name": "_months",
          "type": "uint8"
        }
      ],
      "name": "transferStake",
      "outputs": [],
      "stateMutability": "nonpayable",
      "type": "function"
    },
    {
      "inputs": [],
      "name": "withdraw",
      "outputs": [],
      "stateMutability": "payable",
      "type": "function"
    }
  ],
  "bytecode": "0x61012060405262278d0060c0908152506101f460e0908152506127106101009081525034801561002e57600080fd5b5060405161188a38038061188a83398181016040528101906100509190610121565b3373ffffffffffffffffffffffffffffffffffffffff1660808173ffffffffffffffffffffffffffffffffffffffff16815250508073ffffffffffffffffffffffffffffffffffffffff1660a08173ffffffffffffffffffffffffffffffffffffffff16815250505061014e565b600080fd5b600073ffffffffffffffffffffffffffffffffffffffff82169050919050565b60006100ee826100c3565b9050919050565b6100fe816100e3565b811461010957600080fd5b50565b60008151905061011b816100f5565b92915050565b600060208284031215610137576101366100be565b5b60006101458482850161010c565b91505092915050565b60805160a05160c05160e051610100516116a46101e660003960008181610e3c01528181610e8001528181610eb80152610ee801526000610e1b0152600081816104100152818161046a01528181610cbe0152610dc80152600081816101e9015281816102bb015281816106480152818161071b015281816109550152610a510152600081816107570152610f3101526116a46000f3fe6080604052600436106100555760003560e01c806310087fb11461005a578063328d50881461008357806333f707d1146100ae5780633ccfd60b146100d75780636f9fb98a146100e157806386dc1d651461010c575b600080fd5b34801561006657600080fd5b50610081600480360381019061007c919061106b565b610135565b005b34801561008f57600080fd5b50610098610504565b6040516100a5919061112b565b60405180910390f35b3480156100ba57600080fd5b506100d560048036038101906100d09190611146565b61063e565b005b6100df6107db565b005b3480156100ed57600080fd5b506100f6610a45565b6040516101039190611182565b60405180910390f35b34801561011857600080fd5b50610133600480360381019061012e91906111fb565b610aee565b005b600073ffffffffffffffffffffffffffffffffffffffff163373ffffffffffffffffffffffffffffffffffffffff160361019b576040517f287170f900000000000000000000000000000000000000000000000000000000815260040160405180910390fd5b6000821115806101af575060008160ff1611155b156101e6576040517f9cf8540c00000000000000000000000000000000000000000000000000000000815260040160405180910390fd5b817f000000000000000000000000000000000000000000000000000000000000000073ffffffffffffffffffffffffffffffffffffffff166370a08231336040518263ffffffff1660e01b8152600401610240919061125d565b602060405180830381865afa15801561025d573d6000803e3d6000fd5b505050506040513d601f19601f82011682018060405250810190610281919061128d565b10156102b9576040517f356680b700000000000000000000000000000000000000000000000000000000815260040160405180910390fd5b7f000000000000000000000000000000000000000000000000000000000000000073ffffffffffffffffffffffffffffffffffffffff166323b872dd3330856040518463ffffffff1660e01b8152600401610316939291906112ba565b6020604051808303816000875af1158015610335573d6000803e3d6000fd5b505050506040513d601f19601f820116820180604052508101906103599190611329565b5060008060003373ffffffffffffffffffffffffffffffffffffffff1673ffffffffffffffffffffffffffffffffffffffff16815260200190815260200160002090506000816000015411156104565760006103dd826040518060600160405290816000820154815260200160018201548152602001600282015481525050610dc3565b905080846103eb9190611385565b8260000160008282546103fe9190611385565b925050819055504282600101819055507f00000000000000000000000000000000000000000000000000000000000000008360ff1661043d91906113b9565b426104489190611385565b8260020181905550506104ab565b8281600001819055504281600101819055507f00000000000000000000000000000000000000000000000000000000000000008260ff1661049791906113b9565b426104a29190611385565b81600201819055505b3373ffffffffffffffffffffffffffffffffffffffff167f178ce1e828a62e5ec866a7adda2075dc16069ca103f9a18e9007be6328ad04738260000154846040516104f792919061140a565b60405180910390a2505050565b61050c610fb6565b600073ffffffffffffffffffffffffffffffffffffffff163373ffffffffffffffffffffffffffffffffffffffff1603610572576040517f287170f900000000000000000000000000000000000000000000000000000000815260040160405180910390fd5b60008060003373ffffffffffffffffffffffffffffffffffffffff1673ffffffffffffffffffffffffffffffffffffffff16815260200190815260200160002060405180606001604052908160008201548152602001600182015481526020016002820154815250509050600081600001510361061b576040517f08e71dce00000000000000000000000000000000000000000000000000000000815260040160405180910390fd5b604051806040016040528082815260200161063583610dc3565b81525091505090565b610646610f2f565b7f000000000000000000000000000000000000000000000000000000000000000073ffffffffffffffffffffffffffffffffffffffff166370a08231306040518263ffffffff1660e01b815260040161069f919061125d565b602060405180830381865afa1580156106bc573d6000803e3d6000fd5b505050506040513d601f19601f820116820180604052508101906106e0919061128d565b811115610719576040517f786e0a9900000000000000000000000000000000000000000000000000000000815260040160405180910390fd5b7f000000000000000000000000000000000000000000000000000000000000000073ffffffffffffffffffffffffffffffffffffffff1663a9059cbb7f0000000000000000000000000000000000000000000000000000000000000000836040518363ffffffff1660e01b8152600401610794929190611433565b6020604051808303816000875af11580156107b3573d6000803e3d6000fd5b505050506040513d601f19601f820116820180604052508101906107d79190611329565b5050565b600073ffffffffffffffffffffffffffffffffffffffff163373ffffffffffffffffffffffffffffffffffffffff1603610841576040517f287170f900000000000000000000000000000000000000000000000000000000815260040160405180910390fd5b60008060003373ffffffffffffffffffffffffffffffffffffffff1673ffffffffffffffffffffffffffffffffffffffff168152602001908152602001600020905060008160000154036108c1576040517f08e71dce00000000000000000000000000000000000000000000000000000000815260040160405180910390fd5b42816002015411156108ff576040517fdcfbeafb00000000000000000000000000000000000000000000000000000000815260040160405180910390fd5b6000610933826040518060600160405290816000820154815260200160018201548152602001600282015481525050610dc3565b905060008183600001546109479190611385565b9050600083600001819055507f000000000000000000000000000000000000000000000000000000000000000073ffffffffffffffffffffffffffffffffffffffff1663a9059cbb33836040518363ffffffff1660e01b81526004016109ae929190611433565b6020604051808303816000875af11580156109cd573d6000803e3d6000fd5b505050506040513d601f19601f820116820180604052508101906109f19190611329565b503373ffffffffffffffffffffffffffffffffffffffff167ff4f855c53853d0277a9ff688aadbfe4cb795ca1d5af41704b62cb539f89939ec82604051610a389190611182565b60405180910390a2505050565b6000610a4f610f2f565b7f000000000000000000000000000000000000000000000000000000000000000073ffffffffffffffffffffffffffffffffffffffff166370a08231306040518263ffffffff1660e01b8152600401610aa8919061125d565b602060405180830381865afa158015610ac5573d6000803e3d6000fd5b505050506040513d601f19601f82011682018060405250810190610ae9919061128d565b905090565b600073ffffffffffffffffffffffffffffffffffffffff168373ffffffffffffffffffffffffffffffffffffffff1603610b54576040517f70215c7400000000000000000000000000000000000000000000000000000000815260040160405180910390fd5b60008211610b8e576040517f9cf8540c00000000000000000000000000000000000000000000000000000000815260040160405180910390fd5b60008060003373ffffffffffffffffffffffffffffffffffffffff1673ffffffffffffffffffffffffffffffffffffffff16815260200190815260200160002090508060000154831115610c0e576040517f356680b700000000000000000000000000000000000000000000000000000000815260040160405180910390fd5b60008060008673ffffffffffffffffffffffffffffffffffffffff1673ffffffffffffffffffffffffffffffffffffffff168152602001908152602001600020600001541115610c8a576040517f1409489300000000000000000000000000000000000000000000000000000000815260040160405180910390fd5b82816000016000828254610c9e919061145c565b9250508190555060405180606001604052808481526020014281526020017f00000000000000000000000000000000000000000000000000000000000000008460ff16610ceb91906113b9565b42610cf69190611385565b8152506000808673ffffffffffffffffffffffffffffffffffffffff1673ffffffffffffffffffffffffffffffffffffffff1681526020019081526020016000206000820151816000015560208201518160010155604082015181600201559050508373ffffffffffffffffffffffffffffffffffffffff163373ffffffffffffffffffffffffffffffffffffffff167fd6d3eb25a413c05d8107fc49deb2789bef7f612582b2482804c0b0423b6638ee85604051610db59190611182565b60405180910390a350505050565b6000807f0000000000000000000000000000000000000000000000000000000000000000836020015142610df7919061145c565b610e0191906114bf565b90506001811015610e16576000915050610f2a565b6000817f00000000000000000000000000000000000000000000000000000000000000007f0000000000000000000000000000000000000000000000000000000000000000610e659190611385565b610e6f9190611623565b9050600182610e7e919061145c565b7f0000000000000000000000000000000000000000000000000000000000000000610ea99190611623565b81610eb491906114bf565b90507f000000000000000000000000000000000000000000000000000000000000000081610ee2919061145c565b905060007f0000000000000000000000000000000000000000000000000000000000000000828660000151610f1791906113b9565b610f2191906114bf565b90508093505050505b919050565b7f000000000000000000000000000000000000000000000000000000000000000073ffffffffffffffffffffffffffffffffffffffff163373ffffffffffffffffffffffffffffffffffffffff1614610fb4576040517f30cd747100000000000000000000000000000000000000000000000000000000815260040160405180910390fd5b565b6040518060400160405280610fc9610fd6565b8152602001600081525090565b60405180606001604052806000815260200160008152602001600081525090565b600080fd5b6000819050919050565b61100f81610ffc565b811461101a57600080fd5b50565b60008135905061102c81611006565b92915050565b600060ff82169050919050565b61104881611032565b811461105357600080fd5b50565b6000813590506110658161103f565b92915050565b6000806040838503121561108257611081610ff7565b5b60006110908582860161101d565b92505060206110a185828601611056565b9150509250929050565b6110b481610ffc565b82525050565b6060820160008201516110d060008501826110ab565b5060208201516110e360208501826110ab565b5060408201516110f660408501826110ab565b50505050565b60808201600082015161111260008501826110ba565b50602082015161112560608501826110ab565b50505050565b600060808201905061114060008301846110fc565b92915050565b60006020828403121561115c5761115b610ff7565b5b600061116a8482850161101d565b91505092915050565b61117c81610ffc565b82525050565b60006020820190506111976000830184611173565b92915050565b600073ffffffffffffffffffffffffffffffffffffffff82169050919050565b60006111c88261119d565b9050919050565b6111d8816111bd565b81146111e357600080fd5b50565b6000813590506111f5816111cf565b92915050565b60008060006060848603121561121457611213610ff7565b5b6000611222868287016111e6565b93505060206112338682870161101d565b925050604061124486828701611056565b9150509250925092565b611257816111bd565b82525050565b6000602082019050611272600083018461124e565b92915050565b60008151905061128781611006565b92915050565b6000602082840312156112a3576112a2610ff7565b5b60006112b184828501611278565b91505092915050565b60006060820190506112cf600083018661124e565b6112dc602083018561124e565b6112e96040830184611173565b949350505050565b60008115159050919050565b611306816112f1565b811461131157600080fd5b50565b600081519050611323816112fd565b92915050565b60006020828403121561133f5761133e610ff7565b5b600061134d84828501611314565b91505092915050565b7f4e487b7100000000000000000000000000000000000000000000000000000000600052601160045260246000fd5b600061139082610ffc565b915061139b83610ffc565b92508282019050808211156113b3576113b2611356565b5b92915050565b60006113c482610ffc565b91506113cf83610ffc565b92508282026113dd81610ffc565b915082820484148315176113f4576113f3611356565b5b5092915050565b61140481611032565b82525050565b600060408201905061141f6000830185611173565b61142c60208301846113fb565b9392505050565b6000604082019050611448600083018561124e565b6114556020830184611173565b9392505050565b600061146782610ffc565b915061147283610ffc565b925082820390508181111561148a57611489611356565b5b92915050565b7f4e487b7100000000000000000000000000000000000000000000000000000000600052601260045260246000fd5b60006114ca82610ffc565b91506114d583610ffc565b9250826114e5576114e4611490565b5b828204905092915050565b60008160011c9050919050565b6000808291508390505b60018511156115475780860481111561152357611522611356565b5b60018516156115325780820291505b8081029050611540856114f0565b9450611507565b94509492505050565b600082611560576001905061161c565b8161156e576000905061161c565b8160018114611584576002811461158e576115bd565b600191505061161c565b60ff8411156115a05761159f611356565b5b8360020a9150848211156115b7576115b6611356565b5b5061161c565b5060208310610133831016604e8410600b84101617156115f25782820a9050838111156115ed576115ec611356565b5b61161c565b6115ff84848460016114fd565b9250905081840481111561161657611615611356565b5b81810290505b9392505050565b600061162e82610ffc565b915061163983610ffc565b92506116667fffffffffffffffffffffffffffffffffffffffffffffffffffffffffffffffff8484611550565b90509291505056fea264697066735822122009cac0ce95a1d805963addc777a17b25d25639a9f03d78ada6df1999f077efdb64736f6c634300081a0033",
  "linkReferences": {},
  "deployedLinkReferences": {}
}