{
    "_format": "hh-sol-artifact-1",
    "contractName": "Bank",
    "sourceName": "contracts/Bank.sol",
    "abi": [
        {
            "anonymous": false,
            "inputs": [
                {
                    "indexed": false,
                    "internalType": "string",
                    "name": "bankName",
                    "type": "string"
                },
                {
                    "indexed": true,
                    "internalType": "address",
                    "name": "_address",
                    "type": "address"
                },
                {
                    "indexed": true,
                    "internalType": "string",
                    "name": "_accNum",
                    "type": "string"
                },
                {
                    "indexed": false,
                    "internalType": "string",
                    "name": "_accName",
                    "type": "string"
                },
                {
                    "indexed": false,
                    "internalType": "uint64",
                    "name": "_amt",
                    "type": "uint64"
                }
            ],
            "name": "AccountCreated",
            "type": "event"
        },
        {
            "anonymous": false,
            "inputs": [
                {
                    "indexed": true,
                    "internalType": "address",
                    "name": "_from",
                    "type": "address"
                },
                {
                    "indexed": false,
                    "internalType": "uint256",
                    "name": "_value",
                    "type": "uint256"
                }
            ],
            "name": "Deposit",
            "type": "event"
        },
        {
            "anonymous": false,
            "inputs": [
                {
                    "indexed": true,
                    "internalType": "address",
                    "name": "_from",
                    "type": "address"
                },
                {
                    "indexed": true,
                    "internalType": "address",
                    "name": "_to",
                    "type": "address"
                },
                {
                    "indexed": false,
                    "internalType": "uint256",
                    "name": "_value",
                    "type": "uint256"
                }
            ],
            "name": "ExTransfer",
            "type": "event"
        },
        {
            "anonymous": false,
            "inputs": [
                {
                    "indexed": true,
                    "internalType": "string",
                    "name": "_from",
                    "type": "string"
                },
                {
                    "indexed": true,
                    "internalType": "string",
                    "name": "_to",
                    "type": "string"
                },
                {
                    "indexed": false,
                    "internalType": "uint64",
                    "name": "_value",
                    "type": "uint64"
                }
            ],
            "name": "InTransfer",
            "type": "event"
        },
        {
            "anonymous": false,
            "inputs": [
                {
                    "indexed": true,
                    "internalType": "address",
                    "name": "_to",
                    "type": "address"
                },
                {
                    "indexed": false,
                    "internalType": "uint256",
                    "name": "_value",
                    "type": "uint256"
                }
            ],
            "name": "Withdrawal",
            "type": "event"
        },
        {
            "inputs": [],
            "name": "balance",
            "outputs": [
                {
                    "internalType": "uint64",
                    "name": "",
                    "type": "uint64"
                }
            ],
            "stateMutability": "view",
            "type": "function"
        },
        {
            "inputs": [
                {
                    "internalType": "string",
                    "name": "_accName",
                    "type": "string"
                },
                {
                    "internalType": "string",
                    "name": "_accNum",
                    "type": "string"
                }
            ],
            "name": "createAccount",
            "outputs": [],
            "stateMutability": "payable",
            "type": "function"
        },
        {
            "inputs": [],
            "name": "deposit",
            "outputs": [],
            "stateMutability": "payable",
            "type": "function"
        },
        {
            "inputs": [
                {
                    "internalType": "string",
                    "name": "_to",
                    "type": "string"
                },
                {
                    "internalType": "uint64",
                    "name": "_amt",
                    "type": "uint64"
                }
            ],
            "name": "inBankTransfer",
            "outputs": [],
            "stateMutability": "payable",
            "type": "function"
        },
        {
            "inputs": [
                {
                    "internalType": "address payable",
                    "name": "_to",
                    "type": "address"
                },
                {
                    "internalType": "uint64",
                    "name": "_amt",
                    "type": "uint64"
                }
            ],
            "name": "transfer",
            "outputs": [],
            "stateMutability": "nonpayable",
            "type": "function"
        },
        {
            "inputs": [
                {
                    "internalType": "uint64",
                    "name": "_amt",
                    "type": "uint64"
                }
            ],
            "name": "withdraw",
            "outputs": [],
            "stateMutability": "nonpayable",
            "type": "function"
        }
    ],
    "bytecode": "0x60806040526040518060400160405280600f81526020017f694472697320576562332042616e6b00000000000000000000000000000000008152506000908161004891906102ab565b5034801561005557600080fd5b5061037d565b600081519050919050565b7f4e487b7100000000000000000000000000000000000000000000000000000000600052604160045260246000fd5b7f4e487b7100000000000000000000000000000000000000000000000000000000600052602260045260246000fd5b600060028204905060018216806100dc57607f821691505b6020821081036100ef576100ee610095565b5b50919050565b60008190508160005260206000209050919050565b60006020601f8301049050919050565b600082821b905092915050565b6000600883026101577fffffffffffffffffffffffffffffffffffffffffffffffffffffffffffffffff8261011a565b610161868361011a565b95508019841693508086168417925050509392505050565b6000819050919050565b6000819050919050565b60006101a86101a361019e84610179565b610183565b610179565b9050919050565b6000819050919050565b6101c28361018d565b6101d66101ce826101af565b848454610127565b825550505050565b600090565b6101eb6101de565b6101f68184846101b9565b505050565b5b8181101561021a5761020f6000826101e3565b6001810190506101fc565b5050565b601f82111561025f57610230816100f5565b6102398461010a565b81016020851015610248578190505b61025c6102548561010a565b8301826101fb565b50505b505050565b600082821c905092915050565b600061028260001984600802610264565b1980831691505092915050565b600061029b8383610271565b9150826002028217905092915050565b6102b48261005b565b67ffffffffffffffff8111156102cd576102cc610066565b5b6102d782546100c4565b6102e282828561021e565b600060209050601f8311600181146103155760008415610303578287015190505b61030d858261028f565b865550610375565b601f198416610323866100f5565b60005b8281101561034b57848901518255600182019150602085019450602081019050610326565b868310156103685784890151610364601f891682610271565b8355505b6001600288020188555050505b505050505050565b611b8a8061038c6000396000f3fe6080604052600436106100555760003560e01c8063192892871461005a5780635c16b3ac146100765780635d359fbd14610092578063750f0acc146100bb578063b69ef8a8146100e4578063d0e30db01461010f575b600080fd5b610074600480360381019061006f9190610f3f565b610119565b005b610090600480360381019061008b9190610ff7565b6102af565b005b34801561009e57600080fd5b506100b960048036038101906100b491906110b1565b61060d565b005b3480156100c757600080fd5b506100e260048036038101906100dd91906110f1565b610807565b005b3480156100f057600080fd5b506100f96109e9565b604051610106919061112d565b60405180910390f35b610117610a4f565b005b6101238282610b77565b60405180606001604052808381526020018281526020013467ffffffffffffffff16815250600160003373ffffffffffffffffffffffffffffffffffffffff1673ffffffffffffffffffffffffffffffffffffffff168152602001908152602001600020600082015181600001908161019c9190611369565b5060208201518160010190816101b29190611369565b5060408201518160020160006101000a81548167ffffffffffffffff021916908367ffffffffffffffff160217905550905050336002826040516101f691906114a1565b908152602001604051809103902060006101000a81548173ffffffffffffffffffffffffffffffffffffffff021916908373ffffffffffffffffffffffffffffffffffffffff1602179055508060405161025091906114a1565b60405180910390203373ffffffffffffffffffffffffffffffffffffffff167f165f03d6bc5f488482f0c550493820b86bcfe0dab0857704d06b30ef2110510b600085346040516102a393929190611586565b60405180910390a35050565b6102b7610d52565b600073ffffffffffffffffffffffffffffffffffffffff166002836040516102df91906114a1565b908152602001604051809103902060009054906101000a900473ffffffffffffffffffffffffffffffffffffffff1673ffffffffffffffffffffffffffffffffffffffff1603610364576040517f08c379a000000000000000000000000000000000000000000000000000000000815260040161035b90611617565b60405180910390fd5b8067ffffffffffffffff16600160003373ffffffffffffffffffffffffffffffffffffffff1673ffffffffffffffffffffffffffffffffffffffff16815260200190815260200160002060020160009054906101000a900467ffffffffffffffff1667ffffffffffffffff161015610411576040517f08c379a000000000000000000000000000000000000000000000000000000000815260040161040890611683565b60405180910390fd5b80600160003373ffffffffffffffffffffffffffffffffffffffff1673ffffffffffffffffffffffffffffffffffffffff16815260200190815260200160002060020160008282829054906101000a900467ffffffffffffffff1661047691906116d2565b92506101000a81548167ffffffffffffffff021916908367ffffffffffffffff16021790555080600160006002856040516104b191906114a1565b908152602001604051809103902060009054906101000a900473ffffffffffffffffffffffffffffffffffffffff1673ffffffffffffffffffffffffffffffffffffffff1673ffffffffffffffffffffffffffffffffffffffff16815260200190815260200160002060020160008282829054906101000a900467ffffffffffffffff1661053f919061170e565b92506101000a81548167ffffffffffffffff021916908367ffffffffffffffff1602179055508160405161057391906114a1565b6040518091039020600160003373ffffffffffffffffffffffffffffffffffffffff1673ffffffffffffffffffffffffffffffffffffffff1681526020019081526020016000206001016040516105ca91906117cd565b60405180910390207ff5b756b81aaf00b66780cd46f509e6f4fcffcacc38729708d1f5fe3173fdc5e383604051610601919061112d565b60405180910390a35050565b610615610d52565b8067ffffffffffffffff16600160003373ffffffffffffffffffffffffffffffffffffffff1673ffffffffffffffffffffffffffffffffffffffff16815260200190815260200160002060020160009054906101000a900467ffffffffffffffff1667ffffffffffffffff1610156106c2576040517f08c379a00000000000000000000000000000000000000000000000000000000081526004016106b990611683565b60405180910390fd5b80600160003373ffffffffffffffffffffffffffffffffffffffff1673ffffffffffffffffffffffffffffffffffffffff16815260200190815260200160002060020160008282829054906101000a900467ffffffffffffffff1661072791906116d2565b92506101000a81548167ffffffffffffffff021916908367ffffffffffffffff1602179055508173ffffffffffffffffffffffffffffffffffffffff166108fc8267ffffffffffffffff169081150290604051600060405180830381858888f1935050505015801561079d573d6000803e3d6000fd5b508173ffffffffffffffffffffffffffffffffffffffff163373ffffffffffffffffffffffffffffffffffffffff167f0bb9f4bcc402d808e1f7229ab9b8cffa67d3c5ad9a9ea8e5ab39b09d176f1de1836040516107fb9190611815565b60405180910390a35050565b61080f610d52565b8067ffffffffffffffff16600160003373ffffffffffffffffffffffffffffffffffffffff1673ffffffffffffffffffffffffffffffffffffffff16815260200190815260200160002060020160009054906101000a900467ffffffffffffffff1667ffffffffffffffff1610156108bc576040517f08c379a00000000000000000000000000000000000000000000000000000000081526004016108b390611683565b60405180910390fd5b80600160003373ffffffffffffffffffffffffffffffffffffffff1673ffffffffffffffffffffffffffffffffffffffff16815260200190815260200160002060020160008282829054906101000a900467ffffffffffffffff1661092191906116d2565b92506101000a81548167ffffffffffffffff021916908367ffffffffffffffff1602179055503373ffffffffffffffffffffffffffffffffffffffff166108fc8267ffffffffffffffff169081150290604051600060405180830381858888f19350505050158015610997573d6000803e3d6000fd5b503373ffffffffffffffffffffffffffffffffffffffff167f7fcf532c15f0a6db0bd6d0e038bea71d30d808c7d98cb3bf7268a95bf5081b65826040516109de9190611815565b60405180910390a250565b60006109f3610d52565b600160003373ffffffffffffffffffffffffffffffffffffffff1673ffffffffffffffffffffffffffffffffffffffff16815260200190815260200160002060020160009054906101000a900467ffffffffffffffff16905090565b610a57610d52565b612710341015610a9c576040517f08c379a0000000000000000000000000000000000000000000000000000000008152600401610a93906118a2565b60405180910390fd5b34600160003373ffffffffffffffffffffffffffffffffffffffff1673ffffffffffffffffffffffffffffffffffffffff16815260200190815260200160002060020160008282829054906101000a900467ffffffffffffffff16610b01919061170e565b92506101000a81548167ffffffffffffffff021916908367ffffffffffffffff1602179055503373ffffffffffffffffffffffffffffffffffffffff167fe1fffcc4923d04b559f4d29a8bfc6cda04eb5b0d3c460751c2402c5c5cc9109c34604051610b6d91906118d1565b60405180910390a2565b600a81511015610bbc576040517f08c379a0000000000000000000000000000000000000000000000000000000008152600401610bb390611938565b60405180910390fd5b600682511015610c01576040517f08c379a0000000000000000000000000000000000000000000000000000000008152600401610bf8906119ca565b60405180910390fd5b6000600160003373ffffffffffffffffffffffffffffffffffffffff1673ffffffffffffffffffffffffffffffffffffffff1681526020019081526020016000206000018054610c5090611182565b9050148015610cc95750600073ffffffffffffffffffffffffffffffffffffffff16600282604051610c8291906114a1565b908152602001604051809103902060009054906101000a900473ffffffffffffffffffffffffffffffffffffffff1673ffffffffffffffffffffffffffffffffffffffff16145b610d08576040517f08c379a0000000000000000000000000000000000000000000000000000000008152600401610cff90611a36565b60405180910390fd5b620186a0341015610d4e576040517f08c379a0000000000000000000000000000000000000000000000000000000008152600401610d4590611ac8565b60405180910390fd5b5050565b6000600160003373ffffffffffffffffffffffffffffffffffffffff1673ffffffffffffffffffffffffffffffffffffffff1681526020019081526020016000206000018054610da190611182565b905003610de3576040517f08c379a0000000000000000000000000000000000000000000000000000000008152600401610dda90611b34565b60405180910390fd5b565b6000604051905090565b600080fd5b600080fd5b600080fd5b600080fd5b6000601f19601f8301169050919050565b7f4e487b7100000000000000000000000000000000000000000000000000000000600052604160045260246000fd5b610e4c82610e03565b810181811067ffffffffffffffff82111715610e6b57610e6a610e14565b5b80604052505050565b6000610e7e610de5565b9050610e8a8282610e43565b919050565b600067ffffffffffffffff821115610eaa57610ea9610e14565b5b610eb382610e03565b9050602081019050919050565b82818337600083830152505050565b6000610ee2610edd84610e8f565b610e74565b905082815260208101848484011115610efe57610efd610dfe565b5b610f09848285610ec0565b509392505050565b600082601f830112610f2657610f25610df9565b5b8135610f36848260208601610ecf565b91505092915050565b60008060408385031215610f5657610f55610def565b5b600083013567ffffffffffffffff811115610f7457610f73610df4565b5b610f8085828601610f11565b925050602083013567ffffffffffffffff811115610fa157610fa0610df4565b5b610fad85828601610f11565b9150509250929050565b600067ffffffffffffffff82169050919050565b610fd481610fb7565b8114610fdf57600080fd5b50565b600081359050610ff181610fcb565b92915050565b6000806040838503121561100e5761100d610def565b5b600083013567ffffffffffffffff81111561102c5761102b610df4565b5b61103885828601610f11565b925050602061104985828601610fe2565b9150509250929050565b600073ffffffffffffffffffffffffffffffffffffffff82169050919050565b600061107e82611053565b9050919050565b61108e81611073565b811461109957600080fd5b50565b6000813590506110ab81611085565b92915050565b600080604083850312156110c8576110c7610def565b5b60006110d68582860161109c565b92505060206110e785828601610fe2565b9150509250929050565b60006020828403121561110757611106610def565b5b600061111584828501610fe2565b91505092915050565b61112781610fb7565b82525050565b6000602082019050611142600083018461111e565b92915050565b600081519050919050565b7f4e487b7100000000000000000000000000000000000000000000000000000000600052602260045260246000fd5b6000600282049050600182168061119a57607f821691505b6020821081036111ad576111ac611153565b5b50919050565b60008190508160005260206000209050919050565b60006020601f8301049050919050565b600082821b905092915050565b6000600883026112157fffffffffffffffffffffffffffffffffffffffffffffffffffffffffffffffff826111d8565b61121f86836111d8565b95508019841693508086168417925050509392505050565b6000819050919050565b6000819050919050565b600061126661126161125c84611237565b611241565b611237565b9050919050565b6000819050919050565b6112808361124b565b61129461128c8261126d565b8484546111e5565b825550505050565b600090565b6112a961129c565b6112b4818484611277565b505050565b5b818110156112d8576112cd6000826112a1565b6001810190506112ba565b5050565b601f82111561131d576112ee816111b3565b6112f7846111c8565b81016020851015611306578190505b61131a611312856111c8565b8301826112b9565b50505b505050565b600082821c905092915050565b600061134060001984600802611322565b1980831691505092915050565b6000611359838361132f565b9150826002028217905092915050565b61137282611148565b67ffffffffffffffff81111561138b5761138a610e14565b5b6113958254611182565b6113a08282856112dc565b600060209050601f8311600181146113d357600084156113c1578287015190505b6113cb858261134d565b865550611433565b601f1984166113e1866111b3565b60005b82811015611409578489015182556001820191506020850194506020810190506113e4565b868310156114265784890151611422601f89168261132f565b8355505b6001600288020188555050505b505050505050565b600081905092915050565b60005b83811015611464578082015181840152602081019050611449565b60008484015250505050565b600061147b82611148565b611485818561143b565b9350611495818560208601611446565b80840191505092915050565b60006114ad8284611470565b915081905092915050565b600082825260208201905092915050565b600081546114d681611182565b6114e081866114b8565b945060018216600081146114fb576001811461151157611544565b60ff198316865281151560200286019350611544565b61151a856111b3565b60005b8381101561153c5781548189015260018201915060208101905061151d565b808801955050505b50505092915050565b600061155882611148565b61156281856114b8565b9350611572818560208601611446565b61157b81610e03565b840191505092915050565b600060608201905081810360008301526115a081866114c9565b905081810360208301526115b4818561154d565b90506115c3604083018461111e565b949350505050565b7f496e76616c6964206163636f756e740000000000000000000000000000000000600082015250565b6000611601600f836114b8565b915061160c826115cb565b602082019050919050565b60006020820190508181036000830152611630816115f4565b9050919050565b7f496e73756666696369656e742062616c616e6365000000000000000000000000600082015250565b600061166d6014836114b8565b915061167882611637565b602082019050919050565b6000602082019050818103600083015261169c81611660565b9050919050565b7f4e487b7100000000000000000000000000000000000000000000000000000000600052601160045260246000fd5b60006116dd82610fb7565b91506116e883610fb7565b9250828203905067ffffffffffffffff811115611708576117076116a3565b5b92915050565b600061171982610fb7565b915061172483610fb7565b9250828201905067ffffffffffffffff811115611744576117436116a3565b5b92915050565b6000815461175781611182565b611761818661143b565b9450600182166000811461177c5760018114611791576117c4565b60ff19831686528115158202860193506117c4565b61179a856111b3565b60005b838110156117bc5781548189015260018201915060208101905061179d565b838801955050505b50505092915050565b60006117d9828461174a565b915081905092915050565b60006117ff6117fa6117f584610fb7565b611241565b611237565b9050919050565b61180f816117e4565b82525050565b600060208201905061182a6000830184611806565b92915050565b7f596f752063616e206e6f74206465706f736974206c657373207468616e20313060008201527f2030303020776569000000000000000000000000000000000000000000000000602082015250565b600061188c6028836114b8565b915061189782611830565b604082019050919050565b600060208201905081810360008301526118bb8161187f565b9050919050565b6118cb81611237565b82525050565b60006020820190506118e660008301846118c2565b92915050565b7f4163636f756e74206e756d626572206d75737420626520696e204e5542414e00600082015250565b6000611922601f836114b8565b915061192d826118ec565b602082019050919050565b6000602082019050818103600083015261195181611915565b9050919050565b7f4163636f756e74206e616d65206d75737420626520362063686172616374657260008201527f73206f72206d6f72650000000000000000000000000000000000000000000000602082015250565b60006119b46029836114b8565b91506119bf82611958565b604082019050919050565b600060208201905081810360008301526119e3816119a7565b9050919050565b7f4163636f756e7420616c72656164792065786973747300000000000000000000600082015250565b6000611a206016836114b8565b9150611a2b826119ea565b602082019050919050565b60006020820190508181036000830152611a4f81611a13565b9050919050565b7f4f70656e696e672062616c616e63652063616e206e6f74206265206c6573732060008201527f7468616e20313030203030302077656900000000000000000000000000000000602082015250565b6000611ab26030836114b8565b9150611abd82611a56565b604082019050919050565b60006020820190508181036000830152611ae181611aa5565b9050919050565b7f506c656173652072656769737465722077697468207468652062616e6b000000600082015250565b6000611b1e601d836114b8565b9150611b2982611ae8565b602082019050919050565b60006020820190508181036000830152611b4d81611b11565b905091905056fea264697066735822122067b11e7cb8443c4f2069bd3cf37a9b677958b8107b5638bbedfb7328eb8686d064736f6c634300081a0033",
    "linkReferences": {},
    "deployedLinkReferences": {}
}